{
  "_format": "hh-sol-artifact-1",
  "contractName": "User",
  "sourceName": "src/backend/contracts/User.sol",
  "abi": [
    {
      "anonymous": false,
      "inputs": [
        {
          "indexed": false,
          "internalType": "uint256",
          "name": "itemId",
          "type": "uint256"
        },
        {
          "indexed": true,
          "internalType": "address",
          "name": "nft",
          "type": "address"
        },
        {
          "indexed": false,
          "internalType": "uint256",
          "name": "tokenId",
          "type": "uint256"
        },
        {
          "indexed": true,
          "internalType": "address",
          "name": "minter",
          "type": "address"
        },
        {
          "indexed": true,
          "internalType": "address",
          "name": "receiver",
          "type": "address"
        }
      ],
      "name": "Distribute",
      "type": "event"
    },
    {
      "anonymous": false,
      "inputs": [
        {
          "indexed": false,
          "internalType": "uint256",
          "name": "itemId",
          "type": "uint256"
        },
        {
          "indexed": true,
          "internalType": "address",
          "name": "nft",
          "type": "address"
        },
        {
          "indexed": false,
          "internalType": "uint256",
          "name": "tokenId",
          "type": "uint256"
        },
        {
          "indexed": true,
          "internalType": "address",
          "name": "minter",
          "type": "address"
        }
      ],
      "name": "ListCreatedToken",
      "type": "event"
    },
    {
      "anonymous": false,
      "inputs": [
        {
          "indexed": true,
          "internalType": "bytes32",
          "name": "role",
          "type": "bytes32"
        },
        {
          "indexed": true,
          "internalType": "bytes32",
          "name": "previousAdminRole",
          "type": "bytes32"
        },
        {
          "indexed": true,
          "internalType": "bytes32",
          "name": "newAdminRole",
          "type": "bytes32"
        }
      ],
      "name": "RoleAdminChanged",
      "type": "event"
    },
    {
      "anonymous": false,
      "inputs": [
        {
          "indexed": true,
          "internalType": "bytes32",
          "name": "role",
          "type": "bytes32"
        },
        {
          "indexed": true,
          "internalType": "address",
          "name": "account",
          "type": "address"
        },
        {
          "indexed": true,
          "internalType": "address",
          "name": "sender",
          "type": "address"
        }
      ],
      "name": "RoleGranted",
      "type": "event"
    },
    {
      "anonymous": false,
      "inputs": [
        {
          "indexed": true,
          "internalType": "bytes32",
          "name": "role",
          "type": "bytes32"
        },
        {
          "indexed": true,
          "internalType": "address",
          "name": "account",
          "type": "address"
        },
        {
          "indexed": true,
          "internalType": "address",
          "name": "sender",
          "type": "address"
        }
      ],
      "name": "RoleRevoked",
      "type": "event"
    },
    {
      "inputs": [],
      "name": "DEFAULT_ADMIN_ROLE",
      "outputs": [
        {
          "internalType": "bytes32",
          "name": "",
          "type": "bytes32"
        }
      ],
      "stateMutability": "view",
      "type": "function"
    },
    {
      "inputs": [
        {
          "internalType": "contract IERC721",
          "name": "_nft",
          "type": "address"
        },
        {
          "internalType": "uint256",
          "name": "_tokenId",
          "type": "uint256"
        }
      ],
      "name": "createAccount",
      "outputs": [],
      "stateMutability": "nonpayable",
      "type": "function"
    },
    {
      "inputs": [
        {
          "internalType": "uint256",
          "name": "_itemId",
          "type": "uint256"
        },
        {
          "internalType": "address",
          "name": "useraddress",
          "type": "address"
        }
      ],
      "name": "distributeAccountToken",
      "outputs": [],
      "stateMutability": "nonpayable",
      "type": "function"
    },
    {
      "inputs": [
        {
          "internalType": "bytes32",
          "name": "role",
          "type": "bytes32"
        }
      ],
      "name": "getRoleAdmin",
      "outputs": [
        {
          "internalType": "bytes32",
          "name": "",
          "type": "bytes32"
        }
      ],
      "stateMutability": "view",
      "type": "function"
    },
    {
      "inputs": [
        {
          "internalType": "bytes32",
          "name": "role",
          "type": "bytes32"
        },
        {
          "internalType": "address",
          "name": "account",
          "type": "address"
        }
      ],
      "name": "grantRole",
      "outputs": [],
      "stateMutability": "nonpayable",
      "type": "function"
    },
    {
      "inputs": [
        {
          "internalType": "bytes32",
          "name": "role",
          "type": "bytes32"
        },
        {
          "internalType": "address",
          "name": "account",
          "type": "address"
        }
      ],
      "name": "hasRole",
      "outputs": [
        {
          "internalType": "bool",
          "name": "",
          "type": "bool"
        }
      ],
      "stateMutability": "view",
      "type": "function"
    },
    {
      "inputs": [],
      "name": "itemCount",
      "outputs": [
        {
          "internalType": "uint256",
          "name": "",
          "type": "uint256"
        }
      ],
      "stateMutability": "view",
      "type": "function"
    },
    {
      "inputs": [
        {
          "internalType": "uint256",
          "name": "",
          "type": "uint256"
        }
      ],
      "name": "items",
      "outputs": [
        {
          "internalType": "uint256",
          "name": "itemId",
          "type": "uint256"
        },
        {
          "internalType": "contract IERC721",
          "name": "nft",
          "type": "address"
        },
        {
          "internalType": "uint256",
          "name": "tokenId",
          "type": "uint256"
        },
        {
          "internalType": "address payable",
          "name": "minter",
          "type": "address"
        },
        {
          "internalType": "bool",
          "name": "transfered",
          "type": "bool"
        }
      ],
      "stateMutability": "view",
      "type": "function"
    },
    {
      "inputs": [
        {
          "internalType": "bytes32",
          "name": "role",
          "type": "bytes32"
        },
        {
          "internalType": "address",
          "name": "account",
          "type": "address"
        }
      ],
      "name": "renounceRole",
      "outputs": [],
      "stateMutability": "nonpayable",
      "type": "function"
    },
    {
      "inputs": [
        {
          "internalType": "bytes32",
          "name": "role",
          "type": "bytes32"
        },
        {
          "internalType": "address",
          "name": "account",
          "type": "address"
        }
      ],
      "name": "revokeRole",
      "outputs": [],
      "stateMutability": "nonpayable",
      "type": "function"
    },
    {
      "inputs": [
        {
          "internalType": "bytes4",
          "name": "interfaceId",
          "type": "bytes4"
        }
      ],
      "name": "supportsInterface",
      "outputs": [
        {
          "internalType": "bool",
          "name": "",
          "type": "bool"
        }
      ],
      "stateMutability": "view",
      "type": "function"
    }
  ],
  "bytecode": "0x608060405234801561001057600080fd5b506118a5806100206000396000f3fe608060405234801561001057600080fd5b50600436106100a95760003560e01c80636bfb0d01116100715780636bfb0d011461016257806391d1485414610180578063a217fddf146101b0578063bfb231d2146101ce578063cdc6a22214610202578063d547741f1461021e576100a9565b806301ffc9a7146100ae578063248a9ca3146100de5780632f2ff15d1461010e57806336568abe1461012a5780635fbfb9cf14610146575b600080fd5b6100c860048036038101906100c391906110da565b61023a565b6040516100d59190611380565b60405180910390f35b6100f860048036038101906100f39190611075565b6102b4565b604051610105919061139b565b60405180910390f35b6101286004803603810190610123919061109e565b6102d3565b005b610144600480360381019061013f919061109e565b6102fc565b005b610160600480360381019061015b9190611103565b61037f565b005b61016a6105e3565b6040516101779190611418565b60405180910390f35b61019a6004803603810190610195919061109e565b6105e9565b6040516101a79190611380565b60405180910390f35b6101b8610653565b6040516101c5919061139b565b60405180910390f35b6101e860048036038101906101e3919061113f565b61065a565b6040516101f9959493929190611433565b60405180910390f35b61021c60048036038101906102179190611168565b6106dd565b005b6102386004803603810190610233919061109e565b6108be565b005b60007f7965db0b000000000000000000000000000000000000000000000000000000007bffffffffffffffffffffffffffffffffffffffffffffffffffffffff1916827bffffffffffffffffffffffffffffffffffffffffffffffffffffffff191614806102ad57506102ac826108e7565b5b9050919050565b6000806000838152602001908152602001600020600101549050919050565b6102dc826102b4565b6102ed816102e8610951565b610959565b6102f783836109f6565b505050565b610304610951565b73ffffffffffffffffffffffffffffffffffffffff168173ffffffffffffffffffffffffffffffffffffffff1614610371576040517f08c379a0000000000000000000000000000000000000000000000000000000008152600401610368906113f8565b60405180910390fd5b61037b8282610ad6565b5050565b6103bd6040518060400160405280601d81526020017f746869732069732063616c6c656420637265617465206163636f756e74000000815250610bb7565b600160008154809291906103d0906116a9565b91905055508173ffffffffffffffffffffffffffffffffffffffff166323b872dd3330846040518463ffffffff1660e01b815260040161041293929190611349565b600060405180830381600087803b15801561042c57600080fd5b505af1158015610440573d6000803e3d6000fd5b505050506040518060a0016040528060015481526020018373ffffffffffffffffffffffffffffffffffffffff1681526020018281526020013373ffffffffffffffffffffffffffffffffffffffff168152602001600015158152506002600060015481526020019081526020016000206000820151816000015560208201518160010160006101000a81548173ffffffffffffffffffffffffffffffffffffffff021916908373ffffffffffffffffffffffffffffffffffffffff1602179055506040820151816002015560608201518160030160006101000a81548173ffffffffffffffffffffffffffffffffffffffff021916908373ffffffffffffffffffffffffffffffffffffffff16021790555060808201518160030160146101000a81548160ff0219169083151502179055509050503373ffffffffffffffffffffffffffffffffffffffff168273ffffffffffffffffffffffffffffffffffffffff167ffcf8aa5a273a15ffd10b0a9c3cc038f8246babd4887719168363b9e1ecd024e6600154846040516105d7929190611486565b60405180910390a35050565b60015481565b600080600084815260200190815260200160002060000160008373ffffffffffffffffffffffffffffffffffffffff1673ffffffffffffffffffffffffffffffffffffffff16815260200190815260200160002060009054906101000a900460ff16905092915050565b6000801b81565b60026020528060005260406000206000915090508060000154908060010160009054906101000a900473ffffffffffffffffffffffffffffffffffffffff16908060020154908060030160009054906101000a900473ffffffffffffffffffffffffffffffffffffffff16908060030160149054906101000a900460ff16905085565b61071b6040518060400160405280601a81526020017f746869732069732064697374726962757465206163636f756e74000000000000815250610bb7565b61072481610c50565b600060026000848152602001908152602001600020905060018160030160146101000a81548160ff0219169083151502179055508060010160009054906101000a900473ffffffffffffffffffffffffffffffffffffffff1673ffffffffffffffffffffffffffffffffffffffff166323b872dd308484600201546040518463ffffffff1660e01b81526004016107bd93929190611349565b600060405180830381600087803b1580156107d757600080fd5b505af11580156107eb573d6000803e3d6000fd5b505050508173ffffffffffffffffffffffffffffffffffffffff168160030160009054906101000a900473ffffffffffffffffffffffffffffffffffffffff1673ffffffffffffffffffffffffffffffffffffffff168260010160009054906101000a900473ffffffffffffffffffffffffffffffffffffffff1673ffffffffffffffffffffffffffffffffffffffff167f7bad0e2b115662e653a76307f1b5fc7a93b7463c20034274edf116c4d3addec18685600201546040516108b1929190611486565b60405180910390a4505050565b6108c7826102b4565b6108d8816108d3610951565b610959565b6108e28383610ad6565b505050565b60007f01ffc9a7000000000000000000000000000000000000000000000000000000007bffffffffffffffffffffffffffffffffffffffffffffffffffffffff1916827bffffffffffffffffffffffffffffffffffffffffffffffffffffffff1916149050919050565b600033905090565b61096382826105e9565b6109f2576109888173ffffffffffffffffffffffffffffffffffffffff166014610ce9565b6109968360001c6020610ce9565b6040516020016109a79291906112f4565b6040516020818303038152906040526040517f08c379a00000000000000000000000000000000000000000000000000000000081526004016109e991906113b6565b60405180910390fd5b5050565b610a0082826105e9565b610ad257600160008084815260200190815260200160002060000160008373ffffffffffffffffffffffffffffffffffffffff1673ffffffffffffffffffffffffffffffffffffffff16815260200190815260200160002060006101000a81548160ff021916908315150217905550610a77610951565b73ffffffffffffffffffffffffffffffffffffffff168173ffffffffffffffffffffffffffffffffffffffff16837f2f8788117e7eff1d82e926ec794901d17c78024a50270940304540a733656f0d60405160405180910390a45b5050565b610ae082826105e9565b15610bb357600080600084815260200190815260200160002060000160008373ffffffffffffffffffffffffffffffffffffffff1673ffffffffffffffffffffffffffffffffffffffff16815260200190815260200160002060006101000a81548160ff021916908315150217905550610b58610951565b73ffffffffffffffffffffffffffffffffffffffff168173ffffffffffffffffffffffffffffffffffffffff16837ff6391f5c32d9c69d2a47ea670b442974b53935d1edc7fd64eb21e047a839171b60405160405180910390a45b5050565b610c4d81604051602401610bcb91906113b6565b6040516020818303038152906040527f41304fac000000000000000000000000000000000000000000000000000000007bffffffffffffffffffffffffffffffffffffffffffffffffffffffff19166020820180517bffffffffffffffffffffffffffffffffffffffffffffffffffffffff8381831617835250505050610fe3565b50565b610ce681604051602401610c64919061132e565b6040516020818303038152906040527f2c2ecbc2000000000000000000000000000000000000000000000000000000007bffffffffffffffffffffffffffffffffffffffffffffffffffffffff19166020820180517bffffffffffffffffffffffffffffffffffffffffffffffffffffffff8381831617835250505050610fe3565b50565b606060006002836002610cfc919061152c565b610d0691906114d6565b67ffffffffffffffff811115610d45577f4e487b7100000000000000000000000000000000000000000000000000000000600052604160045260246000fd5b6040519080825280601f01601f191660200182016040528015610d775781602001600182028036833780820191505090505b5090507f300000000000000000000000000000000000000000000000000000000000000081600081518110610dd5577f4e487b7100000000000000000000000000000000000000000000000000000000600052603260045260246000fd5b60200101907effffffffffffffffffffffffffffffffffffffffffffffffffffffffffffff1916908160001a9053507f780000000000000000000000000000000000000000000000000000000000000081600181518110610e5f577f4e487b7100000000000000000000000000000000000000000000000000000000600052603260045260246000fd5b60200101907effffffffffffffffffffffffffffffffffffffffffffffffffffffffffffff1916908160001a90535060006001846002610e9f919061152c565b610ea991906114d6565b90505b6001811115610f95577f3031323334353637383961626364656600000000000000000000000000000000600f861660108110610f11577f4e487b7100000000000000000000000000000000000000000000000000000000600052603260045260246000fd5b1a60f81b828281518110610f4e577f4e487b7100000000000000000000000000000000000000000000000000000000600052603260045260246000fd5b60200101907effffffffffffffffffffffffffffffffffffffffffffffffffffffffffffff1916908160001a905350600485901c945080610f8e9061167f565b9050610eac565b5060008414610fd9576040517f08c379a0000000000000000000000000000000000000000000000000000000008152600401610fd0906113d8565b60405180910390fd5b8091505092915050565b60008151905060006a636f6e736f6c652e6c6f679050602083016000808483855afa5050505050565b60008135905061101b816117fc565b92915050565b60008135905061103081611813565b92915050565b6000813590506110458161182a565b92915050565b60008135905061105a81611841565b92915050565b60008135905061106f81611858565b92915050565b60006020828403121561108757600080fd5b600061109584828501611021565b91505092915050565b600080604083850312156110b157600080fd5b60006110bf85828601611021565b92505060206110d08582860161100c565b9150509250929050565b6000602082840312156110ec57600080fd5b60006110fa84828501611036565b91505092915050565b6000806040838503121561111657600080fd5b60006111248582860161104b565b925050602061113585828601611060565b9150509250929050565b60006020828403121561115157600080fd5b600061115f84828501611060565b91505092915050565b6000806040838503121561117b57600080fd5b600061118985828601611060565b925050602061119a8582860161100c565b9150509250929050565b6111ad81611598565b82525050565b6111bc81611586565b82525050565b6111cb816115aa565b82525050565b6111da816115b6565b82525050565b6111e981611628565b82525050565b60006111fa826114af565b61120481856114ba565b935061121481856020860161164c565b61121d81611721565b840191505092915050565b6000611233826114af565b61123d81856114cb565b935061124d81856020860161164c565b80840191505092915050565b60006112666020836114ba565b915061127182611732565b602082019050919050565b60006112896017836114cb565b91506112948261175b565b601782019050919050565b60006112ac6011836114cb565b91506112b782611784565b601182019050919050565b60006112cf602f836114ba565b91506112da826117ad565b604082019050919050565b6112ee8161161e565b82525050565b60006112ff8261127c565b915061130b8285611228565b91506113168261129f565b91506113228284611228565b91508190509392505050565b600060208201905061134360008301846111b3565b92915050565b600060608201905061135e60008301866111b3565b61136b60208301856111b3565b61137860408301846112e5565b949350505050565b600060208201905061139560008301846111c2565b92915050565b60006020820190506113b060008301846111d1565b92915050565b600060208201905081810360008301526113d081846111ef565b905092915050565b600060208201905081810360008301526113f181611259565b9050919050565b60006020820190508181036000830152611411816112c2565b9050919050565b600060208201905061142d60008301846112e5565b92915050565b600060a08201905061144860008301886112e5565b61145560208301876111e0565b61146260408301866112e5565b61146f60608301856111a4565b61147c60808301846111c2565b9695505050505050565b600060408201905061149b60008301856112e5565b6114a860208301846112e5565b9392505050565b600081519050919050565b600082825260208201905092915050565b600081905092915050565b60006114e18261161e565b91506114ec8361161e565b9250827fffffffffffffffffffffffffffffffffffffffffffffffffffffffffffffffff03821115611521576115206116f2565b5b828201905092915050565b60006115378261161e565b91506115428361161e565b9250817fffffffffffffffffffffffffffffffffffffffffffffffffffffffffffffffff048311821515161561157b5761157a6116f2565b5b828202905092915050565b6000611591826115fe565b9050919050565b60006115a3826115fe565b9050919050565b60008115159050919050565b6000819050919050565b60007fffffffff0000000000000000000000000000000000000000000000000000000082169050919050565b60006115f782611586565b9050919050565b600073ffffffffffffffffffffffffffffffffffffffff82169050919050565b6000819050919050565b60006116338261163a565b9050919050565b6000611645826115fe565b9050919050565b60005b8381101561166a57808201518184015260208101905061164f565b83811115611679576000848401525b50505050565b600061168a8261161e565b9150600082141561169e5761169d6116f2565b5b600182039050919050565b60006116b48261161e565b91507fffffffffffffffffffffffffffffffffffffffffffffffffffffffffffffffff8214156116e7576116e66116f2565b5b600182019050919050565b7f4e487b7100000000000000000000000000000000000000000000000000000000600052601160045260246000fd5b6000601f19601f8301169050919050565b7f537472696e67733a20686578206c656e67746820696e73756666696369656e74600082015250565b7f416363657373436f6e74726f6c3a206163636f756e7420000000000000000000600082015250565b7f206973206d697373696e6720726f6c6520000000000000000000000000000000600082015250565b7f416363657373436f6e74726f6c3a2063616e206f6e6c792072656e6f756e636560008201527f20726f6c657320666f722073656c660000000000000000000000000000000000602082015250565b61180581611586565b811461181057600080fd5b50565b61181c816115b6565b811461182757600080fd5b50565b611833816115c0565b811461183e57600080fd5b50565b61184a816115ec565b811461185557600080fd5b50565b6118618161161e565b811461186c57600080fd5b5056fea2646970667358221220fe5b485fd2a9cb0f6dc54914478295bda914e54e0020b7680e3c1a031ef3c27264736f6c63430008040033",
  "linkReferences": {},
  "deployedLinkReferences": {}
}