{
  "_format": "hh-sol-artifact-1",
  "contractName": "User",
  "sourceName": "src/backend/contracts/User.sol",
  "abi": [
    {
      "anonymous": false,
      "inputs": [
        {
          "indexed": false,
          "internalType": "uint256",
          "name": "itemId",
          "type": "uint256"
        },
        {
          "indexed": true,
          "internalType": "address",
          "name": "nft",
          "type": "address"
        },
        {
          "indexed": false,
          "internalType": "uint256",
          "name": "tokenId",
          "type": "uint256"
        },
        {
          "indexed": true,
          "internalType": "address",
          "name": "minter",
          "type": "address"
        },
        {
          "indexed": true,
          "internalType": "address",
          "name": "receiver",
          "type": "address"
        }
      ],
      "name": "Distribute",
      "type": "event"
    },
    {
      "anonymous": false,
      "inputs": [
        {
          "indexed": false,
          "internalType": "uint256",
          "name": "itemId",
          "type": "uint256"
        },
        {
          "indexed": true,
          "internalType": "address",
          "name": "nft",
          "type": "address"
        },
        {
          "indexed": false,
          "internalType": "uint256",
          "name": "tokenId",
          "type": "uint256"
        },
        {
          "indexed": true,
          "internalType": "address",
          "name": "minter",
          "type": "address"
        }
      ],
      "name": "ListCreatedToken",
      "type": "event"
    },
    {
      "inputs": [
        {
          "internalType": "contract IERC721",
          "name": "_nft",
          "type": "address"
        },
        {
          "internalType": "uint256",
          "name": "_tokenId",
          "type": "uint256"
        }
      ],
      "name": "createAccount",
      "outputs": [],
      "stateMutability": "nonpayable",
      "type": "function"
    },
    {
      "inputs": [
        {
          "internalType": "uint256",
          "name": "_itemId",
          "type": "uint256"
        },
        {
          "internalType": "address",
          "name": "useraddress",
          "type": "address"
        }
      ],
      "name": "distributeAccountToken",
      "outputs": [],
      "stateMutability": "nonpayable",
      "type": "function"
    },
    {
      "inputs": [],
      "name": "itemCount",
      "outputs": [
        {
          "internalType": "uint256",
          "name": "",
          "type": "uint256"
        }
      ],
      "stateMutability": "view",
      "type": "function"
    },
    {
      "inputs": [
        {
          "internalType": "uint256",
          "name": "",
          "type": "uint256"
        }
      ],
      "name": "items",
      "outputs": [
        {
          "internalType": "uint256",
          "name": "itemId",
          "type": "uint256"
        },
        {
          "internalType": "contract IERC721",
          "name": "nft",
          "type": "address"
        },
        {
          "internalType": "uint256",
          "name": "tokenId",
          "type": "uint256"
        },
        {
          "internalType": "address payable",
          "name": "minter",
          "type": "address"
        },
        {
          "internalType": "bool",
          "name": "transfered",
          "type": "bool"
        }
      ],
      "stateMutability": "view",
      "type": "function"
    }
  ],
  "bytecode": "0x608060405234801561001057600080fd5b506001600081905550610c14806100286000396000f3fe608060405234801561001057600080fd5b506004361061004c5760003560e01c80635fbfb9cf146100515780636bfb0d011461006d578063bfb231d21461008b578063cdc6a222146100bf575b600080fd5b61006b60048036038101906100669190610744565b6100db565b005b61007561033f565b6040516100829190610948565b60405180910390f35b6100a560048036038101906100a09190610780565b610345565b6040516100b6959493929190610963565b60405180910390f35b6100d960048036038101906100d491906107a9565b6103c8565b005b6101196040518060400160405280601d81526020017f746869732069732063616c6c656420637265617465206163636f756e74000000815250610643565b6001600081548092919061012c90610abe565b91905055508173ffffffffffffffffffffffffffffffffffffffff166323b872dd3330846040518463ffffffff1660e01b815260040161016e939291906108af565b600060405180830381600087803b15801561018857600080fd5b505af115801561019c573d6000803e3d6000fd5b505050506040518060a0016040528060015481526020018373ffffffffffffffffffffffffffffffffffffffff1681526020018281526020013373ffffffffffffffffffffffffffffffffffffffff168152602001600015158152506002600060015481526020019081526020016000206000820151816000015560208201518160010160006101000a81548173ffffffffffffffffffffffffffffffffffffffff021916908373ffffffffffffffffffffffffffffffffffffffff1602179055506040820151816002015560608201518160030160006101000a81548173ffffffffffffffffffffffffffffffffffffffff021916908373ffffffffffffffffffffffffffffffffffffffff16021790555060808201518160030160146101000a81548160ff0219169083151502179055509050503373ffffffffffffffffffffffffffffffffffffffff168273ffffffffffffffffffffffffffffffffffffffff167ffcf8aa5a273a15ffd10b0a9c3cc038f8246babd4887719168363b9e1ecd024e6600154846040516103339291906109b6565b60405180910390a35050565b60015481565b60026020528060005260406000206000915090508060000154908060010160009054906101000a900473ffffffffffffffffffffffffffffffffffffffff16908060020154908060030160009054906101000a900473ffffffffffffffffffffffffffffffffffffffff16908060030160149054906101000a900460ff16905085565b6104066040518060400160405280601a81526020017f746869732069732064697374726962757465206163636f756e74000000000000815250610643565b600060026000848152602001908152602001600020905060008311801561042f57506001548311155b61046e576040517f08c379a000000000000000000000000000000000000000000000000000000000815260040161046590610928565b60405180910390fd5b8060030160149054906101000a900460ff16156104c0576040517f08c379a00000000000000000000000000000000000000000000000000000000081526004016104b790610908565b60405180910390fd5b60018160030160146101000a81548160ff0219169083151502179055508060010160009054906101000a900473ffffffffffffffffffffffffffffffffffffffff1673ffffffffffffffffffffffffffffffffffffffff166323b872dd308484600201546040518463ffffffff1660e01b8152600401610542939291906108af565b600060405180830381600087803b15801561055c57600080fd5b505af1158015610570573d6000803e3d6000fd5b505050508173ffffffffffffffffffffffffffffffffffffffff168160030160009054906101000a900473ffffffffffffffffffffffffffffffffffffffff1673ffffffffffffffffffffffffffffffffffffffff168260010160009054906101000a900473ffffffffffffffffffffffffffffffffffffffff1673ffffffffffffffffffffffffffffffffffffffff167f7bad0e2b115662e653a76307f1b5fc7a93b7463c20034274edf116c4d3addec18685600201546040516106369291906109b6565b60405180910390a4505050565b6106d98160405160240161065791906108e6565b6040516020818303038152906040527f41304fac000000000000000000000000000000000000000000000000000000007bffffffffffffffffffffffffffffffffffffffffffffffffffffffff19166020820180517bffffffffffffffffffffffffffffffffffffffffffffffffffffffff83818316178352505050506106dc565b50565b60008151905060006a636f6e736f6c652e6c6f679050602083016000808483855afa5050505050565b60008135905061071481610b99565b92915050565b60008135905061072981610bb0565b92915050565b60008135905061073e81610bc7565b92915050565b6000806040838503121561075757600080fd5b60006107658582860161071a565b92505060206107768582860161072f565b9150509250929050565b60006020828403121561079257600080fd5b60006107a08482850161072f565b91505092915050565b600080604083850312156107bc57600080fd5b60006107ca8582860161072f565b92505060206107db85828601610705565b9150509250929050565b6107ee81610a0d565b82525050565b6107fd816109fb565b82525050565b61080c81610a1f565b82525050565b61081b81610a67565b82525050565b600061082c826109df565b61083681856109ea565b9350610846818560208601610a8b565b61084f81610b36565b840191505092915050565b60006108676020836109ea565b915061087282610b47565b602082019050919050565b600061088a6012836109ea565b915061089582610b70565b602082019050919050565b6108a981610a5d565b82525050565b60006060820190506108c460008301866107f4565b6108d160208301856107f4565b6108de60408301846108a0565b949350505050565b600060208201905081810360008301526109008184610821565b905092915050565b600060208201905081810360008301526109218161085a565b9050919050565b600060208201905081810360008301526109418161087d565b9050919050565b600060208201905061095d60008301846108a0565b92915050565b600060a08201905061097860008301886108a0565b6109856020830187610812565b61099260408301866108a0565b61099f60608301856107e5565b6109ac6080830184610803565b9695505050505050565b60006040820190506109cb60008301856108a0565b6109d860208301846108a0565b9392505050565b600081519050919050565b600082825260208201905092915050565b6000610a0682610a3d565b9050919050565b6000610a1882610a3d565b9050919050565b60008115159050919050565b6000610a36826109fb565b9050919050565b600073ffffffffffffffffffffffffffffffffffffffff82169050919050565b6000819050919050565b6000610a7282610a79565b9050919050565b6000610a8482610a3d565b9050919050565b60005b83811015610aa9578082015181840152602081019050610a8e565b83811115610ab8576000848401525b50505050565b6000610ac982610a5d565b91507fffffffffffffffffffffffffffffffffffffffffffffffffffffffffffffffff821415610afc57610afb610b07565b5b600182019050919050565b7f4e487b7100000000000000000000000000000000000000000000000000000000600052601160045260246000fd5b6000601f19601f8301169050919050565b7f6974656d2068617320616c7265616479206265656e207472616e736665726564600082015250565b7f6974656d20646f65736e27742065786973740000000000000000000000000000600082015250565b610ba2816109fb565b8114610bad57600080fd5b50565b610bb981610a2b565b8114610bc457600080fd5b50565b610bd081610a5d565b8114610bdb57600080fd5b5056fea2646970667358221220ec31816f35b5a0858496aa2bd57c27809dae841d086eb06b98085ca1c000640164736f6c63430008040033",
  "linkReferences": {},
  "deployedLinkReferences": {}
}